{
  "contractName": "DictionaryTest",
  "abi": [
    {
      "constant": true,
      "inputs": [],
      "name": "getSize",
      "outputs": [
        {
          "name": "",
          "type": "uint256"
        }
      ],
      "payable": false,
      "stateMutability": "view",
      "type": "function"
    },
    {
      "constant": false,
      "inputs": [
        {
          "name": "afterId",
          "type": "uint256"
        },
        {
          "name": "id",
          "type": "uint256"
        },
        {
          "name": "data",
          "type": "bytes"
        }
      ],
      "name": "insertAfter",
      "outputs": [],
      "payable": false,
      "stateMutability": "nonpayable",
      "type": "function"
    },
    {
      "constant": false,
      "inputs": [
        {
          "name": "beforeId",
          "type": "uint256"
        },
        {
          "name": "id",
          "type": "uint256"
        },
        {
          "name": "data",
          "type": "bytes"
        }
      ],
      "name": "insertBefore",
      "outputs": [],
      "payable": false,
      "stateMutability": "nonpayable",
      "type": "function"
    },
    {
      "constant": false,
      "inputs": [
        {
          "name": "id",
          "type": "uint256"
        },
        {
          "name": "data",
          "type": "bytes"
        }
      ],
      "name": "insertBeginning",
      "outputs": [],
      "payable": false,
      "stateMutability": "nonpayable",
      "type": "function"
    },
    {
      "constant": false,
      "inputs": [
        {
          "name": "id",
          "type": "uint256"
        },
        {
          "name": "data",
          "type": "bytes"
        }
      ],
      "name": "set",
      "outputs": [],
      "payable": false,
      "stateMutability": "nonpayable",
      "type": "function"
    },
    {
      "constant": true,
      "inputs": [
        {
          "name": "id",
          "type": "uint256"
        }
      ],
      "name": "get",
      "outputs": [
        {
          "name": "",
          "type": "bytes"
        }
      ],
      "payable": false,
      "stateMutability": "view",
      "type": "function"
    },
    {
      "constant": true,
      "inputs": [],
      "name": "keys",
      "outputs": [
        {
          "name": "",
          "type": "uint256[]"
        }
      ],
      "payable": false,
      "stateMutability": "view",
      "type": "function"
    },
    {
      "constant": false,
      "inputs": [
        {
          "name": "id",
          "type": "uint256"
        },
        {
          "name": "data",
          "type": "bytes"
        }
      ],
      "name": "insertEnd",
      "outputs": [],
      "payable": false,
      "stateMutability": "nonpayable",
      "type": "function"
    },
    {
      "constant": false,
      "inputs": [
        {
          "name": "id",
          "type": "uint256"
        }
      ],
      "name": "remove",
      "outputs": [
        {
          "name": "",
          "type": "bool"
        }
      ],
      "payable": false,
      "stateMutability": "nonpayable",
      "type": "function"
    },
    {
      "constant": true,
      "inputs": [],
      "name": "first",
      "outputs": [
        {
          "name": "",
          "type": "uint256"
        }
      ],
      "payable": false,
      "stateMutability": "view",
      "type": "function"
    },
    {
      "constant": true,
      "inputs": [
        {
          "name": "id",
          "type": "uint256"
        }
      ],
      "name": "next",
      "outputs": [
        {
          "name": "",
          "type": "uint256"
        }
      ],
      "payable": false,
      "stateMutability": "view",
      "type": "function"
    },
    {
      "constant": true,
      "inputs": [
        {
          "name": "id",
          "type": "uint256"
        }
      ],
      "name": "prev",
      "outputs": [
        {
          "name": "",
          "type": "uint256"
        }
      ],
      "payable": false,
      "stateMutability": "view",
      "type": "function"
    }
  ],
  "bytecode": "0x608060405234801561001057600080fd5b50611144806100206000396000f3fe608060405234801561001057600080fd5b50600436106100d1576000357c01000000000000000000000000000000000000000000000000000000009004806385c5b2841161008e57806385c5b2841461036f5780638b2829471461043e5780639507d39a1461050357806399cbf957146105aa578063de8fa4311461066f578063edd004e51461068d576100d1565b8063307540f6146100d657806335671214146101355780633df4ddf4146101775780634cc822151461019557806354ac3b04146101db5780635de3e4ff146102a0575b600080fd5b6100de6106cf565b6040518080602001828103825283818151815260200191508051906020019060200280838360005b83811015610121578082015181840152602081019050610106565b505050509050019250505060405180910390f35b6101616004803603602081101561014b57600080fd5b81019080803590602001909291905050506106e0565b6040518082815260200191505060405180910390f35b61017f6106fd565b6040518082815260200191505060405180910390f35b6101c1600480360360208110156101ab57600080fd5b8101908080359060200190929190505050610709565b604051808215151515815260200191505060405180910390f35b61029e600480360360408110156101f157600080fd5b81019080803590602001909291908035906020019064010000000081111561021857600080fd5b82018360208201111561022a57600080fd5b8035906020019184600183028401116401000000008311171561024c57600080fd5b91908080601f016020809104026020016040519081016040528093929190818152602001838380828437600081840152601f19601f820116905080830192505050505050509192919290505050610726565b005b61036d600480360360608110156102b657600080fd5b810190808035906020019092919080359060200190929190803590602001906401000000008111156102e757600080fd5b8201836020820111156102f957600080fd5b8035906020019184600183028401116401000000008311171561031b57600080fd5b91908080601f016020809104026020016040519081016040528093929190818152602001838380828437600081840152601f19601f820116905080830192505050505050509192919290505050610740565b005b61043c6004803603606081101561038557600080fd5b810190808035906020019092919080359060200190929190803590602001906401000000008111156103b657600080fd5b8201836020820111156103c857600080fd5b803590602001918460018302840111640100000000831117156103ea57600080fd5b91908080601f016020809104026020016040519081016040528093929190818152602001838380828437600081840152601f19601f82011690508083019250505050505050919291929050505061075d565b005b6105016004803603604081101561045457600080fd5b81019080803590602001909291908035906020019064010000000081111561047b57600080fd5b82018360208201111561048d57600080fd5b803590602001918460018302840111640100000000831117156104af57600080fd5b91908080601f016020809104026020016040519081016040528093929190818152602001838380828437600081840152601f19601f82011690508083019250505050505050919291929050505061077a565b005b61052f6004803603602081101561051957600080fd5b8101908080359060200190929190505050610794565b6040518080602001828103825283818151815260200191508051906020019080838360005b8381101561056f578082015181840152602081019050610554565b50505050905090810190601f16801561059c5780820380516001836020036101000a031916815260200191505b509250505060405180910390f35b61066d600480360360408110156105c057600080fd5b8101908080359060200190929190803590602001906401000000008111156105e757600080fd5b8201836020820111156105f957600080fd5b8035906020019184600183028401116401000000008311171561061b57600080fd5b91908080601f016020809104026020016040519081016040528093929190818152602001838380828437600081840152601f19601f8201169050808301925050505050505091929192905050506107b1565b005b6106776107cb565b6040518082815260200191505060405180910390f35b6106b9600480360360208110156106a357600080fd5b81019080803590602001909291905050506107d7565b6040518082815260200191505060405180910390f35b60606106db60006107f4565b905090565b60006106f682600061088990919063ffffffff16565b9050919050565b60008060010154905090565b600061071f8260006108ac90919063ffffffff16565b9050919050565b61073c828260006109be9092919063ffffffff16565b5050565b61075883838360006109f1909392919063ffffffff16565b505050565b61077583838360006109f1909392919063ffffffff16565b505050565b61079082826000610bb99092919063ffffffff16565b5050565b60606107aa826000610bc990919063ffffffff16565b9050919050565b6107c782826000610c849092919063ffffffff16565b5050565b60008060030154905090565b60006107ed826000610dc090919063ffffffff16565b9050919050565b606080826003015460405190808252806020026020018201604052801561082a5781602001602082028038833980820191505090505b50905060008360010154905060008090505b846003015481101561087e5781838281518110151561085757fe5b906020019060200201818152505061086f8583610dc0565b9150808060010191505061083c565b508192505050919050565b600082600001600083815260200190815260200160002060000154905092915050565b600080836000016000848152602001908152602001600020600101549050600084600001600085815260200190815260200160002060000154905060008114156108fe5781856001018190555061091c565b81856000016000838152602001908152602001600020600101819055505b600082141561093357808560020181905550610951565b80856000016000848152602001908152602001600020600001819055505b84600001600085815260200190815260200160002060008082016000905560018201600090556002820160006109879190610fab565b6003820160006101000a81549060ff0219169055505084600301600081548092919060019003919050555060019250505092915050565b6000836002015414156109db576109d6838383610c84565b6109ec565b6109eb83846002015484846109f1565b5b505050565b83600001600083815260200190815260200160002060030160009054906101000a900460ff1615610a4e57808460000160008481526020019081526020016000206002019080519060200190610a48929190610ff3565b50610bb3565b82846000016000848152602001908152602001600020600001819055506000846000016000858152602001908152602001600020600101541415610ab857600084600001600084815260200190815260200160002060010181905550818460020181905550610b23565b836000016000848152602001908152602001600020600101548460000160008481526020019081526020016000206001018190555081846000016000866000016000878152602001908152602001600020600101548152602001908152602001600020600001819055505b808460000160008481526020019081526020016000206002019080519060200190610b4f929190610ff3565b50600184600001600084815260200190815260200160002060030160006101000a81548160ff021916908315150217905550818460000160008581526020019081526020016000206001018190555083600301600081548092919060010191905055505b50505050565b610bc48383836109be565b505050565b60608260000160008381526020019081526020016000206002018054600181600116156101000203166002900480601f016020809104026020016040519081016040528092919081815260200182805460018160011615610100020316600290048015610c775780601f10610c4c57610100808354040283529160200191610c77565b820191906000526020600020905b815481529060010190602001808311610c5a57829003601f168201915b5050505050905092915050565b82600001600083815260200190815260200160002060030160009054906101000a900460ff1615610ce157808360000160008481526020019081526020016000206002019080519060200190610cdb929190610ff3565b50610dbb565b600083600101541415610da95781836001018190555081836002018190555060806040519081016040528060008152602001600081526020018281526020016001151581525083600001600084815260200190815260200160002060008201518160000155602082015181600101556040820151816002019080519060200190610d6c929190611073565b5060608201518160030160006101000a81548160ff0219169083151502179055509050508260030160008154809291906001019190505550610dba565b610db98384600101548484610de3565b5b5b505050565b600082600001600083815260200190815260200160002060010154905092915050565b83600001600083815260200190815260200160002060030160009054906101000a900460ff1615610e4057808460000160008481526020019081526020016000206002019080519060200190610e3a929190610ff3565b50610fa5565b82846000016000848152602001908152602001600020600101819055506000846000016000858152602001908152602001600020600001541415610eaa57600084600001600084815260200190815260200160002060000181905550818460010181905550610f15565b836000016000848152602001908152602001600020600001548460000160008481526020019081526020016000206000018190555081846000016000866000016000878152602001908152602001600020600001548152602001908152602001600020600101819055505b808460000160008481526020019081526020016000206002019080519060200190610f41929190610ff3565b50600184600001600084815260200190815260200160002060030160006101000a81548160ff021916908315150217905550818460000160008581526020019081526020016000206000018190555083600301600081548092919060010191905055505b50505050565b50805460018160011615610100020316600290046000825580601f10610fd15750610ff0565b601f016020900490600052602060002090810190610fef91906110f3565b5b50565b828054600181600116156101000203166002900490600052602060002090601f016020900481019282601f1061103457805160ff1916838001178555611062565b82800160010185558215611062579182015b82811115611061578251825591602001919060010190611046565b5b50905061106f91906110f3565b5090565b828054600181600116156101000203166002900490600052602060002090601f016020900481019282601f106110b457805160ff19168380011785556110e2565b828001600101855582156110e2579182015b828111156110e15782518255916020019190600101906110c6565b5b5090506110ef91906110f3565b5090565b61111591905b808211156111115760008160009055506001016110f9565b5090565b9056fea165627a7a72305820c804a9af68e39e30dabe804b54f11e0d5d45a3a3f893548d474b091dcd3f18190029",
  "source": "pragma solidity ^0.5.2;\n\nimport \"./Dictionary.sol\";\n\n// Taken from https://github.com/sagivo/solidity-utils/blob/master/contracts/tester/DictionaryTest.sol\ncontract DictionaryTest {\n    using Dictionary for Dictionary.Data;\n    Dictionary.Data private dic;\n\n    function getSize() public view returns (uint) {\n        return dic.len;\n    }\n\n    function insertAfter(uint afterId, uint id, bytes memory data) public {\n        dic.insertAfter(afterId, id, data);\n    }\n\n    function insertBefore(uint beforeId, uint id, bytes memory data) public {\n        dic.insertAfter(beforeId, id, data);\n    }\n\n    function insertBeginning(uint id, bytes memory data) public {\n        dic.insertBeginning(id, data);\n    }\n\n    function set(uint id, bytes memory data) public {\n        dic.set(id, data);\n    }\n\n    function get(uint id) public view returns (bytes memory) {\n        return dic.get(id);\n    }\n\n    function keys() public view returns (uint[] memory) {\n        return dic.keys();\n    }\n\n    function insertEnd(uint id, bytes memory data) public {\n        dic.insertEnd(id, data);\n    }\n\n    function remove(uint id) public returns (bool) {\n        return dic.remove(id);\n    }\n\n    function first() public view returns (uint) {\n        return dic.firstNodeId;\n    }\n\n    function next(uint id) public view returns (uint) {\n        return dic.next(id);\n    }\n\n    function prev(uint id) public view returns (uint) {\n        return dic.prev(id);\n    }\n}\n",
  "sourcePath": "/Users/dwarrier/WebstormProjects/eth-refund/contracts/DictionaryTest.sol",
  "compiler": {
    "name": "solc",
    "version": "0.5.2+commit.1df8f40c.Emscripten.clang"
  },
  "schemaVersion": "3.0.0",
  "updatedAt": "2019-05-09T04:29:11.986Z",
  "devdoc": {
    "methods": {}
  },
  "userdoc": {
    "methods": {}
  }
}