{
  "contractName": "Etherclear",
  "abi": [
    {
      "constant": true,
      "inputs": [
        {
          "name": "",
          "type": "address"
        },
        {
          "name": "",
          "type": "address"
        }
      ],
      "name": "tokens",
      "outputs": [
        {
          "name": "",
          "type": "uint256"
        }
      ],
      "payable": false,
      "stateMutability": "view",
      "type": "function"
    },
    {
      "constant": true,
      "inputs": [],
      "name": "retrieveFundsEnabled",
      "outputs": [
        {
          "name": "",
          "type": "bool"
        }
      ],
      "payable": false,
      "stateMutability": "view",
      "type": "function"
    },
    {
      "constant": true,
      "inputs": [],
      "name": "paymentFee",
      "outputs": [
        {
          "name": "",
          "type": "uint256"
        }
      ],
      "payable": false,
      "stateMutability": "view",
      "type": "function"
    },
    {
      "constant": true,
      "inputs": [],
      "name": "baseFee",
      "outputs": [
        {
          "name": "",
          "type": "uint256"
        }
      ],
      "payable": false,
      "stateMutability": "view",
      "type": "function"
    },
    {
      "constant": true,
      "inputs": [],
      "name": "owner",
      "outputs": [
        {
          "name": "",
          "type": "address"
        }
      ],
      "payable": false,
      "stateMutability": "view",
      "type": "function"
    },
    {
      "constant": true,
      "inputs": [],
      "name": "chainId",
      "outputs": [
        {
          "name": "",
          "type": "uint256"
        }
      ],
      "payable": false,
      "stateMutability": "view",
      "type": "function"
    },
    {
      "constant": true,
      "inputs": [],
      "name": "createPaymentEnabled",
      "outputs": [
        {
          "name": "",
          "type": "bool"
        }
      ],
      "payable": false,
      "stateMutability": "view",
      "type": "function"
    },
    {
      "inputs": [
        {
          "name": "_chainId",
          "type": "uint256"
        }
      ],
      "payable": false,
      "stateMutability": "nonpayable",
      "type": "constructor"
    },
    {
      "anonymous": false,
      "inputs": [
        {
          "indexed": false,
          "name": "txnId",
          "type": "uint256"
        },
        {
          "indexed": false,
          "name": "holdTime",
          "type": "uint256"
        },
        {
          "indexed": false,
          "name": "openTime",
          "type": "uint256"
        },
        {
          "indexed": false,
          "name": "closeTime",
          "type": "uint256"
        },
        {
          "indexed": false,
          "name": "token",
          "type": "address"
        },
        {
          "indexed": false,
          "name": "sendAmount",
          "type": "uint256"
        },
        {
          "indexed": true,
          "name": "sender",
          "type": "address"
        },
        {
          "indexed": true,
          "name": "recipient",
          "type": "address"
        },
        {
          "indexed": false,
          "name": "codeHash",
          "type": "bytes"
        }
      ],
      "name": "PaymentOpened",
      "type": "event"
    },
    {
      "anonymous": false,
      "inputs": [
        {
          "indexed": false,
          "name": "txnId",
          "type": "uint256"
        },
        {
          "indexed": false,
          "name": "holdTime",
          "type": "uint256"
        },
        {
          "indexed": false,
          "name": "openTime",
          "type": "uint256"
        },
        {
          "indexed": false,
          "name": "closeTime",
          "type": "uint256"
        },
        {
          "indexed": false,
          "name": "token",
          "type": "address"
        },
        {
          "indexed": false,
          "name": "sendAmount",
          "type": "uint256"
        },
        {
          "indexed": true,
          "name": "sender",
          "type": "address"
        },
        {
          "indexed": true,
          "name": "recipient",
          "type": "address"
        },
        {
          "indexed": false,
          "name": "codeHash",
          "type": "bytes"
        },
        {
          "indexed": false,
          "name": "state",
          "type": "uint256"
        }
      ],
      "name": "PaymentClosed",
      "type": "event"
    },
    {
      "constant": true,
      "inputs": [
        {
          "name": "txnId",
          "type": "uint256"
        },
        {
          "name": "sender",
          "type": "address"
        },
        {
          "name": "recipient",
          "type": "address"
        },
        {
          "name": "passphrase",
          "type": "string"
        },
        {
          "name": "requestType",
          "type": "uint256"
        },
        {
          "name": "sigR",
          "type": "bytes32"
        },
        {
          "name": "sigS",
          "type": "bytes32"
        },
        {
          "name": "sigV",
          "type": "uint8"
        }
      ],
      "name": "getSignerForPaymentCompleteRequest",
      "outputs": [
        {
          "name": "result",
          "type": "address"
        }
      ],
      "payable": false,
      "stateMutability": "view",
      "type": "function"
    },
    {
      "constant": false,
      "inputs": [
        {
          "name": "reverseRegistrarAddr",
          "type": "address"
        },
        {
          "name": "name",
          "type": "string"
        }
      ],
      "name": "setENS",
      "outputs": [],
      "payable": false,
      "stateMutability": "nonpayable",
      "type": "function"
    },
    {
      "constant": false,
      "inputs": [
        {
          "name": "token",
          "type": "address"
        }
      ],
      "name": "withdrawFees",
      "outputs": [],
      "payable": false,
      "stateMutability": "nonpayable",
      "type": "function"
    },
    {
      "constant": true,
      "inputs": [
        {
          "name": "token",
          "type": "address"
        },
        {
          "name": "user",
          "type": "address"
        }
      ],
      "name": "viewBalance",
      "outputs": [
        {
          "name": "balance",
          "type": "uint256"
        }
      ],
      "payable": false,
      "stateMutability": "view",
      "type": "function"
    },
    {
      "constant": false,
      "inputs": [
        {
          "name": "newFee",
          "type": "uint256"
        }
      ],
      "name": "changeBaseFee",
      "outputs": [],
      "payable": false,
      "stateMutability": "nonpayable",
      "type": "function"
    },
    {
      "constant": false,
      "inputs": [
        {
          "name": "newFee",
          "type": "uint256"
        }
      ],
      "name": "changePaymentFee",
      "outputs": [],
      "payable": false,
      "stateMutability": "nonpayable",
      "type": "function"
    },
    {
      "constant": false,
      "inputs": [
        {
          "name": "disabled",
          "type": "bool"
        }
      ],
      "name": "disableRetrieveFunds",
      "outputs": [],
      "payable": false,
      "stateMutability": "nonpayable",
      "type": "function"
    },
    {
      "constant": false,
      "inputs": [
        {
          "name": "disabled",
          "type": "bool"
        }
      ],
      "name": "disableCreatePayment",
      "outputs": [],
      "payable": false,
      "stateMutability": "nonpayable",
      "type": "function"
    },
    {
      "constant": true,
      "inputs": [
        {
          "name": "paymentID",
          "type": "uint256"
        }
      ],
      "name": "getPaymentInfo",
      "outputs": [
        {
          "name": "holdTime",
          "type": "uint256"
        },
        {
          "name": "paymentOpenTime",
          "type": "uint256"
        },
        {
          "name": "paymentCloseTime",
          "type": "uint256"
        },
        {
          "name": "token",
          "type": "address"
        },
        {
          "name": "sendAmount",
          "type": "uint256"
        },
        {
          "name": "sender",
          "type": "address"
        },
        {
          "name": "recipient",
          "type": "address"
        },
        {
          "name": "codeHash",
          "type": "bytes"
        },
        {
          "name": "state",
          "type": "uint256"
        }
      ],
      "payable": false,
      "stateMutability": "view",
      "type": "function"
    },
    {
      "constant": false,
      "inputs": [
        {
          "name": "txnId",
          "type": "uint256"
        }
      ],
      "name": "cancelPaymentAsSender",
      "outputs": [],
      "payable": false,
      "stateMutability": "nonpayable",
      "type": "function"
    },
    {
      "constant": false,
      "inputs": [
        {
          "name": "amount",
          "type": "uint256"
        },
        {
          "name": "recipient",
          "type": "address"
        },
        {
          "name": "holdTime",
          "type": "uint256"
        },
        {
          "name": "codeHash",
          "type": "bytes"
        }
      ],
      "name": "createPayment",
      "outputs": [],
      "payable": true,
      "stateMutability": "payable",
      "type": "function"
    },
    {
      "constant": true,
      "inputs": [
        {
          "name": "token",
          "type": "address"
        }
      ],
      "name": "getBalance",
      "outputs": [
        {
          "name": "amt",
          "type": "uint256"
        }
      ],
      "payable": false,
      "stateMutability": "view",
      "type": "function"
    },
    {
      "constant": true,
      "inputs": [
        {
          "name": "recipient",
          "type": "address"
        },
        {
          "name": "codeHash",
          "type": "bytes"
        }
      ],
      "name": "getPaymentId",
      "outputs": [
        {
          "name": "result",
          "type": "uint256"
        }
      ],
      "payable": false,
      "stateMutability": "pure",
      "type": "function"
    },
    {
      "constant": false,
      "inputs": [
        {
          "name": "token",
          "type": "address"
        },
        {
          "name": "amount",
          "type": "uint256"
        },
        {
          "name": "recipient",
          "type": "address"
        },
        {
          "name": "holdTime",
          "type": "uint256"
        },
        {
          "name": "codeHash",
          "type": "bytes"
        }
      ],
      "name": "createTokenPayment",
      "outputs": [],
      "payable": true,
      "stateMutability": "payable",
      "type": "function"
    },
    {
      "constant": false,
      "inputs": [
        {
          "name": "txnId",
          "type": "uint256"
        },
        {
          "name": "sender",
          "type": "address"
        },
        {
          "name": "recipient",
          "type": "address"
        },
        {
          "name": "passphrase",
          "type": "string"
        },
        {
          "name": "requestType",
          "type": "uint256"
        },
        {
          "name": "sigR",
          "type": "bytes32"
        },
        {
          "name": "sigS",
          "type": "bytes32"
        },
        {
          "name": "sigV",
          "type": "uint8"
        }
      ],
      "name": "completePaymentAsProxy",
      "outputs": [],
      "payable": false,
      "stateMutability": "nonpayable",
      "type": "function"
    },
    {
      "constant": false,
      "inputs": [
        {
          "name": "txnId",
          "type": "uint256"
        },
        {
          "name": "code",
          "type": "string"
        }
      ],
      "name": "retrieveFundsAsRecipient",
      "outputs": [],
      "payable": false,
      "stateMutability": "nonpayable",
      "type": "function"
    },
    {
      "constant": true,
      "inputs": [
        {
          "name": "bs",
          "type": "bytes"
        }
      ],
      "name": "sliceUint",
      "outputs": [
        {
          "name": "",
          "type": "uint256"
        }
      ],
      "payable": false,
      "stateMutability": "pure",
      "type": "function"
    }
  ],
  "bytecode": "0x60806040523480156200001157600080fd5b506040516200365638038062003656833981016040819052620000349162000167565b600280546001600160a01b0319163317905566038d7ea4c680006003556611c37937e080006004556006805461ff001960ff199091166001171661010017905560088190556040805160808101909152605f808252620035f76020830139604051602001620000a4919062000257565b60405160208183030381529060405280519060200120604051620000c8906200026c565b6040518091039020604051620000de9062000279565b60405190819003812060085462000132949392731c56346cd2a2bf3202f771f50d3d14a367b48070907ff2d857f4a3edcb9b78b4d503bfe733db1e3f6cdc2b7971ee739626c97e86a5589060200162000286565b60408051601f198184030181529190528051602090910120600755506200035e565b8051620001618162000344565b92915050565b6000602082840312156200017a57600080fd5b600062000188848462000154565b949350505050565b6200019b81620002f5565b82525050565b6200019b8162000302565b6000620001b982620002ec565b620001c58185620002f0565b9350620001d781856020860162000311565b9290920192915050565b6000620001f0600a83620002f0565b7f4574686572636c656172000000000000000000000000000000000000000000008152600a0192915050565b60006200022b600183620002f0565b7f3100000000000000000000000000000000000000000000000000000000000000815260010192915050565b6000620002658284620001ac565b9392505050565b60006200016182620001e1565b600062000161826200021c565b60c08101620002968289620001a1565b620002a56020830188620001a1565b620002b46040830187620001a1565b620002c36060830186620001a1565b620002d2608083018562000190565b620002e160a0830184620001a1565b979650505050505050565b5190565b919050565b6000620001618262000305565b90565b6001600160a01b031690565b60005b838110156200032e57818101518382015260200162000314565b838111156200033e576000848401525b50505050565b6200034f8162000302565b81146200035b57600080fd5b50565b613289806200036e6000396000f3fe60806040526004361061014b5760003560e01c80638d4da5e0116100b6578063d810ff0f1161006f578063d810ff0f14610371578063e3366334146103a6578063ee55aa0f146103c6578063eff6be2f146103db578063f6d0726c146103fb578063f8b2cb4f1461041b5761014b565b80638d4da5e0146102c75780638da5cb5b146102e75780639a8a059214610309578063a53525331461031e578063c49824801461033e578063d67240a01461035e5761014b565b8063508493bc11610108578063508493bc1461021b5780635204fc011461023b5780635e4a43c51461025b5780636ef06a081461027d5780636ef25c3a146102925780638372279e146102a75761014b565b806301f5dd49146101505780630e014cf814610172578063164e68de146101a85780632c052515146101c85780633cb38632146101db5780634c8a78e8146101fb575b600080fd5b34801561015c57600080fd5b5061017061016b366004612405565b61043b565b005b34801561017e57600080fd5b5061019261018d3660046121cb565b610863565b60405161019f9190612f25565b60405180910390f35b3480156101b457600080fd5b506101706101c33660046121a5565b610890565b6101706101d636600461224d565b6109d3565b3480156101e757600080fd5b506101706101f63660046122da565b610d8d565b34801561020757600080fd5b50610192610216366004612334565b610dce565b34801561022757600080fd5b506101926102363660046121cb565b610df5565b34801561024757600080fd5b50610170610256366004612205565b610e12565b34801561026757600080fd5b50610270610ed8565b60405161019f9190612d27565b34801561028957600080fd5b50610192610ee6565b34801561029e57600080fd5b50610192610eec565b3480156102b357600080fd5b506101706102c2366004612369565b610ef2565b3480156102d357600080fd5b506101706102e23660046122da565b611084565b3480156102f357600080fd5b506102fc6110c0565b60405161019f9190612cc8565b34801561031557600080fd5b506101926110cf565b34801561032a57600080fd5b50610192610339366004612205565b6110d5565b34801561034a57600080fd5b50610170610359366004612369565b611137565b61017061036c366004612387565b611166565b34801561037d57600080fd5b5061039161038c366004612369565b6111b1565b60405161019f99989796959493929190612f33565b3480156103b257600080fd5b506102fc6103c1366004612405565b61134f565b3480156103d257600080fd5b506102706113fd565b3480156103e757600080fd5b506101706103f6366004612369565b611406565b34801561040757600080fd5b506101706104163660046124cd565b611435565b34801561042757600080fd5b506101926104363660046121a5565b611599565b610443611f5a565b6040518060a001604052808a8152602001896001600160a01b03168152602001886001600160a01b031681526020018781526020018681525090506000600161048b836115bf565b848787604051600081526020016040526040516104ab9493929190612d8f565b6020604051602081039080840390855afa1580156104cd573d6000803e3d6000fd5b5050604051601f1901519150508515806104e75750600186145b61050c5760405162461bcd60e51b815260040161050390612e75565b60405180910390fd5b60018614156106b957806001600160a01b0316886001600160a01b0316146105465760405162461bcd60e51b815260040161050390612e25565b61054e611f9b565b60008b8152600160208181526040928390208351610120810185528154815281840154818401526002808301548287015260038301546001600160a01b039081166060840152600484015460808401526005840154811660a084015260068401541660c083015260078301805487516101009782161597909702600019011691909104601f81018590048502860185019096528585529094919360e08601939092908301828280156106415780601f1061061657610100808354040283529160200191610641565b820191906000526020600020905b81548152906001019060200180831161062457829003601f168201915b5050509183525050600882015460209091019060ff16600281111561066257fe5b600281111561066d57fe5b815250509050886001600160a01b03168160c001516001600160a01b0316146106a85760405162461bcd60e51b815260040161050390612e15565b6106b3818c8a61167c565b50610857565b806001600160a01b0316896001600160a01b0316146106ea5760405162461bcd60e51b815260040161050390612dd5565b6106f2611f9b565b60008b8152600160208181526040928390208351610120810185528154815281840154818401526002808301548287015260038301546001600160a01b039081166060840152600484015460808401526005840154811660a084015260068401541660c083015260078301805487516101009782161597909702600019011691909104601f81018590048502860185019096528585529094919360e08601939092908301828280156107e55780601f106107ba576101008083540402835291602001916107e5565b820191906000526020600020905b8154815290600101906020018083116107c857829003601f168201915b5050509183525050600882015460209091019060ff16600281111561080657fe5b600281111561081157fe5b815250509050896001600160a01b03168160a001516001600160a01b03161461084c5760405162461bcd60e51b815260040161050390612ed5565b6108558b611970565b505b50505050505050505050565b6001600160a01b038083166000908152600560209081526040808320938516835292905220545b92915050565b6002546001600160a01b031633146108ba5760405162461bcd60e51b815260040161050390612ec5565b6001600160a01b0381811660008181526005602090815260408083206002549095168352939052918220805492905561092d576002546040516001600160a01b039091169082156108fc029083906000818181858888f19350505050158015610927573d6000803e3d6000fd5b506109cf565b60025460405163a9059cbb60e01b81526001600160a01b038481169263a9059cbb9261096192909116908590600401612cd6565b602060405180830381600087803b15801561097b57600080fd5b505af115801561098f573d6000803e3d6000fd5b505050506040513d601f19601f820116820180604052506109b391908101906122f8565b6109cf5760405162461bcd60e51b815260040161050390612f05565b5050565b60065460ff166109f55760405162461bcd60e51b815260040161050390612ef5565b6000670de0b6b3a7640000610a0c60045487611c86565b81610a1357fe5b0490506001600160a01b038616610a5d57610a39610a3386600354611cc7565b82611cc7565b341015610a585760405162461bcd60e51b815260040161050390612f15565b610a7f565b600354341015610a7f5760405162461bcd60e51b815260040161050390612de5565b6000610a8b85846110d5565b6000818152600160205260409020600501549091506001600160a01b031615610ac65760405162461bcd60e51b815260040161050390612e35565b610ace611f9b565b60405180610120016040528086815260200142815260200160008152602001896001600160a01b03168152602001888152602001336001600160a01b03168152602001876001600160a01b0316815260200185815260200160006002811115610b3357fe5b905260008381526001602081815260409283902084518155818501519281019290925591830151600282015560608301516003820180546001600160a01b039283166001600160a01b0319918216179091556080850151600484015560a085015160058401805491841691831691909117905560c085015160068401805491909316911617905560e0830151805193945084939192610bda92600785019290910190611fe4565b5061010082015160088201805460ff19166001836002811115610bf957fe5b021790555050506001600160a01b038816610ca6573360009081526000805160206132278339815191526020526040902054610c359088611cc7565b3360009081526000805160206132278339815191526020526040808220929092556002546001600160a01b031681522054610c7990610c74348a611cec565b611cc7565b6002546001600160a01b031660009081526000805160206132278339815191526020526040902055610d0c565b6002546001600160a01b031660009081526000805160206132278339815191526020526040902054610cd89034611cc7565b6002546001600160a01b031660009081526000805160206132278339815191526020526040902055610d0c88338986611d14565b8060c001516001600160a01b03168160a001516001600160a01b03167f0334b06c8b30fde88055598b252c2c7465253f606f06cd13c11fcc5e147982e184846000015185602001518660400151876060015188608001518960e00151604051610d7b9796959493929190612fc0565b60405180910390a35050505050505050565b6002546001600160a01b03163314610db75760405162461bcd60e51b815260040161050390612ec5565b6006805461ff001916911561010002919091179055565b8051600090819060201115610de7576000915050610df0565b82016020015190505b919050565b600560209081526000928352604080842090915290825290205481565b6002546001600160a01b03163314610e3c5760405162461bcd60e51b815260040161050390612ec5565b600080546001600160a01b0319166001600160a01b03848116919091179182905560405163c47f002760e01b815291169063c47f002790610e81908490600401612dc4565b602060405180830381600087803b158015610e9b57600080fd5b505af1158015610eaf573d6000803e3d6000fd5b505050506040513d601f19601f82011682018060405250610ed39190810190612316565b505050565b600654610100900460ff1681565b60045481565b60035481565b610efa611f9b565b6000828152600160208181526040928390208351610120810185528154815281840154818401526002808301548287015260038301546001600160a01b039081166060840152600484015460808401526005840154811660a084015260068401541660c083015260078301805487516101009782161597909702600019011691909104601f81018590048502860185019096528585529094919360e0860193909290830182828015610fed5780601f10610fc257610100808354040283529160200191610fed565b820191906000526020600020905b815481529060010190602001808311610fd057829003601f168201915b5050509183525050600882015460209091019060ff16600281111561100e57fe5b600281111561101957fe5b90525060a08101519091506001600160a01b0316331461104b5760405162461bcd60e51b815260040161050390612ea5565b6000816101000151600281111561105e57fe5b1461107b5760405162461bcd60e51b815260040161050390612eb5565b6109cf82611970565b6002546001600160a01b031633146110ae5760405162461bcd60e51b815260040161050390612ec5565b6006805460ff19169115919091179055565b6002546001600160a01b031681565b60085481565b6000606082846040516020016110ec929190612c69565b604051602081830303815290604052805190602001206040516020016111129190612c54565b6040516020818303038152906040529050600061112e82610dce565b95945050505050565b6002546001600160a01b031633146111615760405162461bcd60e51b815260040161050390612ec5565b600455565b6111aa600086868686868080601f0160208091040260200160405190810160405280939291908181526020018383808284376000920191909152506109d392505050565b5050505050565b6000806000806000806000606060006111c8611f9b565b60008b8152600160208181526040928390208351610120810185528154815281840154818401526002808301548287015260038301546001600160a01b039081166060840152600484015460808401526005840154811660a084015260068401541660c083015260078301805487516101009782161597909702600019011691909104601f81018590048502860185019096528585529094919360e08601939092908301828280156112bb5780601f10611290576101008083540402835291602001916112bb565b820191906000526020600020905b81548152906001019060200180831161129e57829003601f168201915b5050509183525050600882015460209091019060ff1660028111156112dc57fe5b60028111156112e757fe5b815250509050806000015181602001518260400151836060015184608001518560a001518660c001518760e00151886101000151600281111561132657fe5b839350829250819150995099509950995099509950995099509950509193959799909294969850565b6000611359611f5a565b6040518060a001604052808b81526020018a6001600160a01b03168152602001896001600160a01b03168152602001888152602001878152509050600060016113a1836115bf565b858888604051600081526020016040526040516113c19493929190612d8f565b6020604051602081039080840390855afa1580156113e3573d6000803e3d6000fd5b5050604051601f1901519c9b505050505050505050505050565b60065460ff1681565b6002546001600160a01b031633146114305760405162461bcd60e51b815260040161050390612ec5565b600355565b61143d611f9b565b6000838152600160208181526040928390208351610120810185528154815281840154818401526002808301548287015260038301546001600160a01b039081166060840152600484015460808401526005840154811660a084015260068401541660c083015260078301805487516101009782161597909702600019011691909104601f81018590048502860185019096528585529094919360e08601939092908301828280156115305780601f1061150557610100808354040283529160200191611530565b820191906000526020600020905b81548152906001019060200180831161151357829003601f168201915b5050509183525050600882015460209091019060ff16600281111561155157fe5b600281111561155c57fe5b90525060c08101519091506001600160a01b0316331461158e5760405162461bcd60e51b815260040161050390612e85565b610ed381848461167c565b6001600160a01b0316600090815260056020908152604080832033845290915290205490565b60006007546040518060a00160405280606c81526020016131bb606c91396040516020016115ed9190612c8b565b60405160208183030381529060405280519060200120836000015184602001518560400151866060015180519060200120876080015160405160200161163896959493929190612d35565b6040516020818303038152906040528051906020012060405160200161165f929190612c97565b604051602081830303815290604052805190602001209050919050565b600654610100900460ff166116a35760405162461bcd60e51b815260040161050390612df5565b600083610100015160028111156116b657fe5b146116d35760405162461bcd60e51b815260040161050390612e65565b6060818460c001516040516020016116ec929190612c69565b604051602081830303815290604052805190602001206040516020016117129190612c54565b60405160208183030381529060405290506117308460e00151610dce565b61173982610dce565b146117565760405162461bcd60e51b815260040161050390612e55565b835160208501514291011161177d5760405162461bcd60e51b815260040161050390612ee5565b426040850152600161010085018190525060008381526001602081905260408220828155908101829055600281018290556003810180546001600160a01b031990811690915560048201839055600582018054821690556006820180549091169055906117ed6007830182612062565b50600801805460ff1916905560608401516001600160a01b03166118c5578360c001516001600160a01b03166108fc85608001519081150290604051600060405180830381858888f1935050505015801561184c573d6000803e3d6000fd5b5060008080526005602090815260a08601516001600160a01b0316825260008051602061322783398151915290526040902054608085015161188e9190611cec565b60008080526005602090815260a08701516001600160a01b03168252600080516020613227833981519152905260409020556118e1565b6118e184606001518560a001518660c001518760800151611e5c565b8360c001516001600160a01b03168460a001516001600160a01b03167f745b716a3cbd24a5a2958f87df530aa9236aba3079c439d116782f4ff312e35a858760000151886020015189604001518a606001518b608001518c60e001518d6101000151600281111561194e57fe5b60405161196298979695949392919061302e565b60405180910390a350505050565b611978611f9b565b6000828152600160208181526040928390208351610120810185528154815281840154818401526002808301548287015260038301546001600160a01b039081166060840152600484015460808401526005840154811660a084015260068401541660c083015260078301805487516101009782161597909702600019011691909104601f81018590048502860185019096528585529094919360e0860193909290830182828015611a6b5780601f10611a4057610100808354040283529160200191611a6b565b820191906000526020600020905b815481529060010190602001808311611a4e57829003601f168201915b5050509183525050600882015460209091019060ff166002811115611a8c57fe5b6002811115611a9757fe5b9052504260408201529050600261010082018190525060008281526001602081905260408220828155908101829055600281018290556003810180546001600160a01b03199081169091556004820183905560058201805482169055600682018054909116905590611b0c6007830182612062565b50600801805460ff1916905560608101516001600160a01b0316611bdd5760008080526005602090815260a08301516001600160a01b03168252600080516020613227833981519152905260409020546080820151611b6b9190611cec565b60008080526005602090815260a0840180516001600160a01b039081168452600080516020613227833981519152909252604080842094909455516080850151935191169280156108fc0292909190818181858888f19350505050158015611bd7573d6000803e3d6000fd5b50611bf9565b611bf981606001518260a001518360a001518460800151611e5c565b8060c001516001600160a01b03168160a001516001600160a01b03167f745b716a3cbd24a5a2958f87df530aa9236aba3079c439d116782f4ff312e35a84846000015185602001518660400151876060015188608001518960e001518a61010001516002811115611c6657fe5b604051611c7a98979695949392919061302e565b60405180910390a35050565b600082611c955750600061088a565b82820282848281611ca257fe5b0414611cc05760405162461bcd60e51b815260040161050390612e95565b9392505050565b600082820183811015611cc05760405162461bcd60e51b815260040161050390612e05565b600082821115611d0e5760405162461bcd60e51b815260040161050390612e45565b50900390565b6001600160a01b038416611d2757600080fd5b836001600160a01b03166323b872dd8430611d428686611cc7565b6040518463ffffffff1660e01b8152600401611d6093929190612cf1565b602060405180830381600087803b158015611d7a57600080fd5b505af1158015611d8e573d6000803e3d6000fd5b505050506040513d601f19601f82011682018060405250611db291908101906122f8565b611dbb57600080fd5b6001600160a01b0384166000908152600560209081526040808320338452909152902054611de99083611cc7565b6001600160a01b03858116600090815260056020908152604080832088851684529091528082209390935560025490911681522054611e289082611cc7565b6001600160a01b03948516600090815260056020908152604080832060025490981683529690529490942093909355505050565b6001600160a01b038416611e6f57600080fd5b60405163a9059cbb60e01b81526001600160a01b0385169063a9059cbb90611e9d9085908590600401612d19565b602060405180830381600087803b158015611eb757600080fd5b505af1158015611ecb573d6000803e3d6000fd5b505050506040513d601f19601f82011682018060405250611eef91908101906122f8565b611ef857600080fd5b6001600160a01b03808516600090815260056020908152604080832093871683529290522054611f289082611cec565b6001600160a01b0394851660009081526005602090815260408083209690971682529490945293909220929092555050565b6040518060a001604052806000815260200160006001600160a01b0316815260200160006001600160a01b0316815260200160608152602001600081525090565b604080516101208101825260008082526020820181905291810182905260608082018390526080820183905260a0820183905260c0820183905260e08201529061010082015290565b828054600181600116156101000203166002900490600052602060002090601f016020900481019282601f1061202557805160ff1916838001178555612052565b82800160010185558215612052579182015b82811115612052578251825591602001919060010190612037565b5061205e9291506120a9565b5090565b50805460018160011615610100020316600290046000825580601f1061208857506120a6565b601f0160209004906000526020600020908101906120a691906120a9565b50565b6120c391905b8082111561205e57600081556001016120af565b90565b803561088a8161318b565b803561088a8161319f565b805161088a8161319f565b803561088a816131a8565b805161088a816131a8565b60008083601f84011261210f57600080fd5b50813567ffffffffffffffff81111561212757600080fd5b60208301915083600182028301111561213f57600080fd5b9250929050565b600082601f83011261215757600080fd5b813561216a612165826130c6565b61309f565b9150808252602083016020830185838301111561218657600080fd5b61219183828461312e565b50505092915050565b803561088a816131b1565b6000602082840312156121b757600080fd5b60006121c384846120c6565b949350505050565b600080604083850312156121de57600080fd5b60006121ea85856120c6565b92505060206121fb858286016120c6565b9150509250929050565b6000806040838503121561221857600080fd5b600061222485856120c6565b925050602083013567ffffffffffffffff81111561224157600080fd5b6121fb85828601612146565b600080600080600060a0868803121561226557600080fd5b600061227188886120c6565b9550506020612282888289016120e7565b9450506040612293888289016120c6565b93505060606122a4888289016120e7565b925050608086013567ffffffffffffffff8111156122c157600080fd5b6122cd88828901612146565b9150509295509295909350565b6000602082840312156122ec57600080fd5b60006121c384846120d1565b60006020828403121561230a57600080fd5b60006121c384846120dc565b60006020828403121561232857600080fd5b60006121c384846120f2565b60006020828403121561234657600080fd5b813567ffffffffffffffff81111561235d57600080fd5b6121c384828501612146565b60006020828403121561237b57600080fd5b60006121c384846120e7565b60008060008060006080868803121561239f57600080fd5b60006123ab88886120e7565b95505060206123bc888289016120c6565b94505060406123cd888289016120e7565b935050606086013567ffffffffffffffff8111156123ea57600080fd5b6123f6888289016120fd565b92509250509295509295909350565b600080600080600080600080610100898b03121561242257600080fd5b600061242e8b8b6120e7565b985050602061243f8b828c016120c6565b97505060406124508b828c016120c6565b965050606089013567ffffffffffffffff81111561246d57600080fd5b6124798b828c01612146565b955050608061248a8b828c016120e7565b94505060a061249b8b828c016120e7565b93505060c06124ac8b828c016120e7565b92505060e06124bd8b828c0161219a565b9150509295985092959890939650565b600080604083850312156124e057600080fd5b600061222485856120e7565b6124f58161311d565b82525050565b6124f5816130fb565b6124f5612510826130fb565b61316a565b6124f581613106565b6124f5816120c3565b6124f5612533826120c3565b6120c3565b6000612543826130ee565b61254d81856130f2565b935061255d81856020860161313a565b6125668161317b565b9093019392505050565b600061257b826130ee565b6125858185610df0565b935061259581856020860161313a565b9290920192915050565b60006125ac6040836130f2565b7f546865206d6573736167652073656e646572206d75737420626520746865207381527f616d6520617320746865207369676e6572206f6620746865206d657373616765602082015260400192915050565b600061260b602d836130f2565b7f4d6573736167652076616c7565206973206e6f7420656e6f75676820746f206381526c6f76657220626173652066656560981b602082015260400192915050565b600061265a6037836130f2565b7f5468652072657472696576652066756e64732066756e6374696f6e616c69747981527f2069732063757272656e746c792064697361626c65642e000000000000000000602082015260400192915050565b60006126b9600283610df0565b61190160f01b815260020192915050565b60006126d7601b836130f2565b7f536166654d6174683a206164646974696f6e206f766572666c6f770000000000815260200192915050565b60006127106041836130f2565b7f546865207061796d656e74277320726563697069656e74206d7573742062652081527f7468652073616d65206173207369676e6572206f6620746865206d65737361676020820152606560f81b604082015260600192915050565b60006127796043836130f2565b7f546865206d65737361676520726563697069656e74206d75737420626520746881527f652073616d6520617320746865207369676e6572206f6620746865206d65737360208201526261676560e81b604082015260600192915050565b60006127e4603b836130f2565b7f5061796d656e74204944206d75737420626520756e697175652e20557365206181527f20646966666572656e74207061737370687261736520686173682e0000000000602082015260400192915050565b6000612843601e836130f2565b7f536166654d6174683a207375627472616374696f6e206f766572666c6f770000815260200192915050565b600061287c6019836130f2565b7f50617373706872617365206973206e6f7420636f727265637400000000000000815260200192915050565b60006128b56026836130f2565b7f5061796d656e74206d757374206265206f70656e20746f2072657472696576658152652066756e647360d01b602082015260400192915050565b60006128fd602e836130f2565b7f7265717565737454797065206d7573742062652030202843414e43454c29206f81526d722031202852455452494556452960901b602082015260400192915050565b600061294d602b836130f2565b7f4d6573736167652073656e646572206d757374206d61746368207061796d656e81526a1d081c9958da5c1a595b9d60aa1b602082015260400192915050565b600061299a6021836130f2565b7f536166654d6174683a206d756c7469706c69636174696f6e206f766572666c6f8152607760f81b602082015260400192915050565b60006129dd602d836130f2565b7f5061796d656e742073656e64657220646f6573206e6f74206d61746368206d6581526c39b9b0b3b29039b2b73232b91760991b602082015260400192915050565b6000612a2c601f836130f2565b7f5061796d656e74206d757374206265206f70656e20746f2063616e63656c2e00815260200192915050565b6000612a656038836130f2565b7f4f6e6c792074686520636f6e7472616374206f776e657220697320616c6c6f7781527f656420746f2075736520746869732066756e6374696f6e2e0000000000000000602082015260400192915050565b6000612ac4603e836130f2565b7f546865207061796d656e7427732073656e646572206d7573742062652074686581527f2073616d65206173207369676e6572206f6620746865206d6573736167650000602082015260400192915050565b6000612b23601d836130f2565b7f486f6c642074696d652068617320616c72656164792065787069726564000000815260200192915050565b6000612b5c6037836130f2565b7f54686520637265617465207061796d656e74732066756e6374696f6e616c697481527f792069732063757272656e746c792064697361626c6564000000000000000000602082015260400192915050565b6000612bbb6025836130f2565b7f436f756c64206e6f74207375636365737366756c6c79207769746864726177208152643a37b5b2b760d91b602082015260400192915050565b6000612c026034836130f2565b7f4d6573736167652076616c7565206973206e6f7420656e6f75676820746f20638152736f76657220616d6f756e7420616e64206665657360601b602082015260400192915050565b6124f581613117565b6000612c608284612527565b50602001919050565b6000612c758285612570565b9150612c818284612504565b5060140192915050565b6000611cc08284612570565b6000612ca2826126ac565b9150612cae8285612527565b602082019150612cbe8284612527565b5060200192915050565b6020810161088a82846124fb565b60408101612ce482856124ec565b611cc0602083018461251e565b60608101612cff82866124fb565b612d0c60208301856124fb565b6121c3604083018461251e565b60408101612ce482856124fb565b6020810161088a8284612515565b60c08101612d43828961251e565b612d50602083018861251e565b612d5d60408301876124fb565b612d6a60608301866124fb565b612d77608083018561251e565b612d8460a083018461251e565b979650505050505050565b60808101612d9d828761251e565b612daa6020830186612c4b565b612db7604083018561251e565b61112e606083018461251e565b60208082528101611cc08184612538565b6020808252810161088a8161259f565b6020808252810161088a816125fe565b6020808252810161088a8161264d565b6020808252810161088a816126ca565b6020808252810161088a81612703565b6020808252810161088a8161276c565b6020808252810161088a816127d7565b6020808252810161088a81612836565b6020808252810161088a8161286f565b6020808252810161088a816128a8565b6020808252810161088a816128f0565b6020808252810161088a81612940565b6020808252810161088a8161298d565b6020808252810161088a816129d0565b6020808252810161088a81612a1f565b6020808252810161088a81612a58565b6020808252810161088a81612ab7565b6020808252810161088a81612b16565b6020808252810161088a81612b4f565b6020808252810161088a81612bae565b6020808252810161088a81612bf5565b6020810161088a828461251e565b6101208101612f42828c61251e565b612f4f602083018b61251e565b612f5c604083018a61251e565b612f6960608301896124fb565b612f76608083018861251e565b612f8360a08301876124fb565b612f9060c08301866124fb565b81810360e0830152612fa28185612538565b9050612fb261010083018461251e565b9a9950505050505050505050565b60e08101612fce828a61251e565b612fdb602083018961251e565b612fe8604083018861251e565b612ff5606083018761251e565b61300260808301866124fb565b61300f60a083018561251e565b81810360c08301526130218184612538565b9998505050505050505050565b610100810161303d828b61251e565b61304a602083018a61251e565b613057604083018961251e565b613064606083018861251e565b61307160808301876124fb565b61307e60a083018661251e565b81810360c08301526130908185612538565b905061302160e083018461251e565b60405181810167ffffffffffffffff811182821017156130be57600080fd5b604052919050565b600067ffffffffffffffff8211156130dd57600080fd5b506020601f91909101601f19160190565b5190565b90815260200190565b600061088a8261310b565b151590565b6001600160a01b031690565b60ff1690565b600061088a82600061088a826130fb565b82818337506000910152565b60005b8381101561315557818101518382015260200161313d565b83811115613164576000848401525b50505050565b600061088a82600061088a82613185565b601f01601f191690565b60601b90565b613194816130fb565b81146120a657600080fd5b61319481613106565b613194816120c3565b6131948161311756fe436f6d706c6574655061796d656e74526571756573742875696e743235362074786e49642c616464726573732073656e6465722c6164647265737320726563697069656e742c737472696e6720706173737068726173652c75696e743235362072657175657374547970652905b8ccbb9d4d8fb16ea74ce3c29a41f1b461fbdaff4714a0d9a8eb05499746bca365627a7a72305820ef2a8ae32fc924ce4dccb1e687092431bd01aa86c0bd43ad48f8abedb0fea4516c6578706572696d656e74616cf564736f6c63430005090040454950373132446f6d61696e28737472696e67206e616d652c737472696e672076657273696f6e2c75696e7432353620636861696e49642c6164647265737320766572696679696e67436f6e74726163742c627974657333322073616c7429",
  "source": "pragma solidity ^0.5.9;\npragma experimental ABIEncoderV2;\n\nimport \"openzeppelin-solidity/contracts/token/ERC20/IERC20.sol\";\nimport \"openzeppelin-solidity/contracts/math/SafeMath.sol\";\n\n/**\n * @title Etherclear\n * @dev The Etherclear contract is meant to serve as a transition step for funds between a sender\n * and a recipient, where the sender can take the funds back if they cancel the payment,\n * and the recipient can only retrieve the funds in a specified amount of time, using\n * a passphrase communicated privately by the sender.\n *\n * The usage of the contract is as follows:\n *\n * 1) The sender generates a passphrase, and passes keccak256(passphrase,recipient_address) to the\n * contract, along with a hold time. This registers a payment ID (which must be unique), and\n * marks the start of the holding time window.\n * 2) The sender communicates this passphrase to the recipient over a secure channel.\n * 3) Before the holding time has passed, the recipient can send the passphrase to the contract to withdraw the funds.\n * 4) After the holding time has passed, the recipient is no longer able to withdraw the funds, regardless\n * of whether they have the passphrase or not.\n *\n * At any time, the sender can cancel the payment if they provide the payment ID, which\n * will initiate a transfer of funds back to the sender.\n * The sender is expected to cancel the payment if they have made a mistake in specifying\n * the recipient's address, the recipient does not claim the funds, or if the holding period has expired and the\n * funds need to be retrieved.\n *\n * TODO: Currently, the payment ID is a truncated version of the passphrase hash that is used to ensure knowledge of the\n * passphrase. They will be left as separate entities for now in case they need to be constructed differently.\n *\n * NOTE: the hold time functionality is not very secure for small time periods since it uses now (block.timestamp). It is meant to be an additional security measure, and should not be relied upon in the case of an\n attack. The current known tolerance is 900 seconds:\n * https://github.com/ethereum/wiki/blob/c02254611f218f43cbb07517ca8e5d00fd6d6d75/Block-Protocol-2.0.md\n *\n * Some parts are modified from https://github.com/forkdelta/smart_contract/blob/master/contracts/ForkDelta.sol\n*/\n\n/*\n * This is used as an interface to provide functionality when setting up the contract with ENS.\n*/\ncontract ReverseRegistrar {\n    function setName(string memory name) public returns (bytes32);\n}\n\ncontract Etherclear {\n    // TODO: think about adding a ERC223 fallback method.\n\n    // NOTE: PaymentClosed has the same signature\n    // because we want to look for payments\n    // from the latest block backwards, and\n    // we want to terminate the search for\n    // past events as soon as possible when doing so.\n    event PaymentOpened(\n        uint txnId,\n        uint holdTime,\n        uint openTime,\n        uint closeTime,\n        address token,\n        uint sendAmount,\n        address indexed sender,\n        address indexed recipient,\n        bytes codeHash\n    );\n    event PaymentClosed(\n        uint txnId,\n        uint holdTime,\n        uint openTime,\n        uint closeTime,\n        address token,\n        uint sendAmount,\n        address indexed sender,\n        address indexed recipient,\n        bytes codeHash,\n        uint state\n    );\n\n    // A Payment starts in the OPEN state.\n    // Once it is COMPLETED or CANCELLED, it cannot be changed further.\n    enum PaymentState {OPEN, COMPLETED, CANCELLED}\n    // Used when receiving signed messages to cancel or complete\n    // a payment.\n    enum CompletePaymentRequestType {CANCEL, RETRIEVE}\n\n    // A Payment is created each time a sender wants to\n    // send an amount to a recipient.\n    struct Payment {\n        // timestamps are in epoch seconds\n        uint holdTime;\n        uint paymentOpenTime;\n        uint paymentCloseTime;\n        // Token contract address, 0 is Ether.\n        address token;\n        uint sendAmount;\n        address payable sender;\n        address payable recipient;\n        bytes codeHash;\n        PaymentState state;\n    }\n\n    ReverseRegistrar reverseRegistrar;\n\n    // EIP-712 code uses the examples provided at\n    // https://medium.com/metamask/eip712-is-coming-what-to-expect-and-how-to-use-it-bb92fd1a7a26\n    // TODO: the salt and verifyingContract still need to be changed.\n    // This struct and the associated typed signature are used for both\n    // cancelling and retrieving payments.\n    struct CompletePaymentRequest {\n        uint txnId;\n        address sender;\n        address recipient;\n        // Passphrase doesn't matter if the request ype is CANCEL.\n        string passphrase;\n        // CompletePaymentRequestType\n        uint requestType;\n    }\n\n    // Payments are looked up with a uint UUID generated within the contract.\n    mapping(uint => Payment) openPayments;\n\n    // This contract's owner (gives ability to set fees).\n    address payable public owner;\n    // The fees are represented with a percentage times 1 ether.\n    // The baseFee is to cover feeless retrieval\n    // The paymentFee is to cover development costs\n    uint public baseFee;\n    uint public paymentFee;\n    // mapping of token addresses to mapping of account balances (token=0 means Ether)\n    mapping(address => mapping(address => uint)) public tokens;\n\n    // NOTE: We do not lock the cancel payment functionality, so that users\n    // will still be able to withdraw funds from payments they created.\n    // Failsafe to lock the create payments functionality for both ether and tokens.\n    bool public createPaymentEnabled;\n    // Failsafe to lock the retrieval (withdraw) functionality.\n    bool public retrieveFundsEnabled;\n\n    address constant verifyingContract = 0x1C56346CD2A2Bf3202F771f50d3D14a367B48070;\n    bytes32 constant salt = 0xf2d857f4a3edcb9b78b4d503bfe733db1e3f6cdc2b7971ee739626c97e86a558;\n    string private constant COMPLETE_PAYMENT_REQUEST_TYPE = \"CompletePaymentRequest(uint256 txnId,address sender,address recipient,string passphrase,uint256 requestType)\";\n    string private constant EIP712_DOMAIN_TYPE = \"EIP712Domain(string name,string version,uint256 chainId,address verifyingContract,bytes32 salt)\";\n    bytes32 private constant EIP712_DOMAIN_TYPEHASH = keccak256(\n        abi.encodePacked(EIP712_DOMAIN_TYPE)\n    );\n    bytes32 private constant COMPLETE_PAYMENT_REQUEST_TYPEHASH = keccak256(\n        abi.encodePacked(COMPLETE_PAYMENT_REQUEST_TYPE)\n    );\n    bytes32 private DOMAIN_SEPARATOR;\n    // The chainId is public because it differs between\n    // contract instances\n    uint256 public chainId;\n\n    function hashCompletePaymentRequest(CompletePaymentRequest memory request)\n        private\n        view\n        returns (bytes32 hash)\n    {\n        return keccak256(\n            abi.encodePacked(\n                \"\\x19\\x01\",\n                DOMAIN_SEPARATOR,\n                keccak256(\n                    abi.encode(\n                        COMPLETE_PAYMENT_REQUEST_TYPEHASH,\n                        request.txnId,\n                        request.sender,\n                        request.recipient,\n                        keccak256(bytes(request.passphrase)),\n                        request.requestType\n                    )\n                )\n            )\n        );\n    }\n\n    // Used to test the sign and recover functionality.\n    function getSignerForPaymentCompleteRequest(\n        uint256 txnId,\n        address sender,\n        address recipient,\n        string memory passphrase,\n        uint requestType,\n        bytes32 sigR,\n        bytes32 sigS,\n        uint8 sigV\n    ) public view returns (address result) {\n        CompletePaymentRequest memory request = CompletePaymentRequest(\n            txnId,\n            sender,\n            recipient,\n            passphrase,\n            requestType\n        );\n        address signer = ecrecover(\n            hashCompletePaymentRequest(request),\n            sigV,\n            sigR,\n            sigS\n        );\n        return signer;\n    }\n\n    constructor(uint256 _chainId) public {\n        owner = msg.sender;\n        baseFee = 0.001 ether;\n        paymentFee = 0.005 ether;\n        createPaymentEnabled = true;\n        retrieveFundsEnabled = true;\n        chainId = _chainId;\n        DOMAIN_SEPARATOR = keccak256(\n            abi.encode(\n                EIP712_DOMAIN_TYPEHASH,\n                keccak256(\"Etherclear\"),\n                keccak256(\"1\"),\n                chainId,\n                verifyingContract,\n                salt\n            )\n        );\n    }\n\n    modifier onlyOwner {\n        require(\n            msg.sender == owner,\n            \"Only the contract owner is allowed to use this function.\"\n        );\n        _;\n    }\n\n    /*\n    * SetENS sets the name of the reverse record so that it points to this contract address.\n    */\n    function setENS(address reverseRegistrarAddr, string memory name)\n        public\n        onlyOwner\n    {\n        reverseRegistrar = ReverseRegistrar(reverseRegistrarAddr);\n        reverseRegistrar.setName(name);\n\n    }\n\n    function withdrawFees(address token) external onlyOwner {\n        // The \"owner\" account is considered the fee account.\n        uint total = tokens[token][owner];\n        tokens[token][owner] = 0;\n        if (token == address(0)) {\n            owner.transfer(total);\n        } else {\n            require(\n                IERC20(token).transfer(owner, total),\n                \"Could not successfully withdraw token\"\n            );\n        }\n    }\n\n    function viewBalance(address token, address user)\n        external\n        view\n        returns (uint balance)\n    {\n        return tokens[token][user];\n    }\n\n    // TODO: change this so that the fee can only be decreased\n    // (once a suitable starting fee is reached).\n    function changeBaseFee(uint newFee) external onlyOwner {\n        baseFee = newFee;\n    }\n    function changePaymentFee(uint newFee) external onlyOwner {\n        paymentFee = newFee;\n    }\n\n    function disableRetrieveFunds(bool disabled) public onlyOwner {\n        retrieveFundsEnabled = !disabled;\n    }\n\n    function disableCreatePayment(bool disabled) public onlyOwner {\n        createPaymentEnabled = !disabled;\n    }\n\n    function getPaymentInfo(uint paymentID)\n        external\n        view\n        returns (\n            uint holdTime,\n            uint paymentOpenTime,\n            uint paymentCloseTime,\n            address token,\n            uint sendAmount,\n            address sender,\n            address recipient,\n            bytes memory codeHash,\n            uint state\n        )\n    {\n        Payment memory txn = openPayments[paymentID];\n        return (\n            txn.holdTime,\n            txn.paymentOpenTime,\n            txn.paymentCloseTime,\n            txn.token,\n            txn.sendAmount,\n            txn.sender,\n            txn.recipient,\n            txn.codeHash,\n            uint(txn.state)\n        );\n    }\n\n    function cancelPaymentAsSender(uint txnId) external {\n        // Check txn sender and state.\n        Payment memory txn = openPayments[txnId];\n        require(\n            txn.sender == msg.sender,\n            \"Payment sender does not match message sender.\"\n        );\n        require(\n            txn.state == PaymentState.OPEN,\n            \"Payment must be open to cancel.\"\n        );\n        cancelPayment(txnId);\n    }\n\n    // Cancels the payment and returns the funds to the payment's sender.\n    // Assumes that checks have already been done on any external calls.\n    function cancelPayment(uint txnId) private {\n        // Check txn sender and state.\n        Payment memory txn = openPayments[txnId];\n\n        // Update txn state.\n        txn.paymentCloseTime = now;\n        txn.state = PaymentState.CANCELLED;\n\n        delete openPayments[txnId];\n\n        // Return funds to sender.\n        if (txn.token == address(0)) {\n            tokens[address(0)][txn.sender] = SafeMath.sub(\n                tokens[address(0)][txn.sender],\n                txn.sendAmount\n            );\n            txn.sender.transfer(txn.sendAmount);\n        } else {\n            withdrawToken(txn.token, txn.sender, txn.sender, txn.sendAmount);\n        }\n\n        emit PaymentClosed(\n            txnId,\n            txn.holdTime,\n            txn.paymentOpenTime,\n            txn.paymentCloseTime,\n            txn.token,\n            txn.sendAmount,\n            txn.sender,\n            txn.recipient,\n            txn.codeHash,\n            uint(txn.state)\n        );\n    }\n\n    /**\n* This function handles deposits of ERC-20 tokens to the contract.\n* Does not allow Ether.\n* If token transfer fails, payment is reverted and remaining gas is refunded.\n* Additionally, includes a fee which must be accounted for when approving the amount.\n* Note: Remember to call Token(address).approve(this, amount) or this contract will not be able to do the transfer on your behalf.\n* @param token Ethereum contract address of the token or 0 for Ether\n* @param originalAmount uint of the amount of the token the user wishes to deposit\n* @param feeAmount uint total amount of the fee charged by the contract\n*/\n    // TODO: this doesn't follow checks-effects-interactions\n    // https://solidity.readthedocs.io/en/develop/security-considerations.html?highlight=check%20effects#use-the-checks-effects-interactions-pattern\n    function transferToken(\n        address token,\n        address user,\n        uint originalAmount,\n        uint feeAmount\n    ) internal {\n        require(token != address(0));\n        // TODO: use depositingTokenFlag in the ERC223 fallback function\n        //depositingTokenFlag = true;\n        require(\n            IERC20(token).transferFrom(\n                user,\n                address(this),\n                SafeMath.add(originalAmount, feeAmount)\n            )\n        );\n        //depositingTokenFlag = false;\n        tokens[token][user] = SafeMath.add(\n            tokens[token][msg.sender],\n            originalAmount\n        );\n        tokens[token][owner] = SafeMath.add(tokens[token][owner], feeAmount);\n    }\n\n    // TODO: Make sure to check if amounts are available\n    // We don't increment any balances because the funds are sent\n    // outside of the contract.\n    function withdrawToken(\n        address token,\n        address userFrom,\n        address userTo,\n        uint amount\n    ) internal {\n        require(token != address(0));\n        require(IERC20(token).transfer(userTo, amount));\n        tokens[token][userFrom] = SafeMath.sub(tokens[token][userFrom], amount);\n    }\n\n    /* This takes ether for the fee amount*/\n    // TODO check order of execution.\n    function createPayment(\n        uint amount,\n        address payable recipient,\n        uint holdTime,\n        bytes calldata codeHash\n    ) external payable {\n        return createTokenPayment(\n            address(0),\n            amount,\n            recipient,\n            holdTime,\n            codeHash\n        );\n\n    }\n\n    // Meant to be used for the approve() call, since the\n    // amount in the ERC20 contract implementation will be\n    // overwritten with the amount requested in the next approve().\n    // This returns the amount of the token that the\n    // contract still holds.\n    // TODO: ensure this value will be correct.\n    function getBalance(address token) external view returns (uint amt) {\n        return tokens[token][msg.sender];\n    }\n\n    function getPaymentId(address recipient, bytes memory codeHash)\n        public\n        pure\n        returns (uint result)\n    {\n        bytes memory txnIdBytes = abi.encodePacked(\n            keccak256(abi.encodePacked(codeHash, recipient))\n        );\n        uint txnId = sliceUint(txnIdBytes);\n        return txnId;\n    }\n    // Creates a new payment with the msg.sender as sender.\n    // Expected to take a base fee in ETH.\n    // Also takes a payment fee in either ETH or the token used,\n    // this payment fee is calculated from the original amount.\n    // We assume here that an approve() call has already been made for\n    // the original amount + payment fee.\n    function createTokenPayment(\n        address token,\n        uint amount,\n        address payable recipient,\n        uint holdTime,\n        bytes memory codeHash\n    ) public payable {\n        // Check amount and fee, make sure to truncate fee.\n        require(\n            createPaymentEnabled,\n            \"The create payments functionality is currently disabled\"\n        );\n        uint paymentFeeTotal = uint(\n            SafeMath.mul(paymentFee, amount) / (1 ether)\n        );\n        if (token == address(0)) {\n            require(\n                msg.value >= (\n                    SafeMath.add(SafeMath.add(amount, baseFee), paymentFeeTotal)\n                ),\n                \"Message value is not enough to cover amount and fees\"\n            );\n        } else {\n            require(\n                msg.value >= baseFee,\n                \"Message value is not enough to cover base fee\"\n            );\n            // We don't check for a minimum when taking the paymentFee here. Since we don't\n            // care what the original sent amount was supposed to be, we just take a percentage and\n            // subtract that from the sent amount.\n        }\n\n        // Check payment ID.\n        // TODO: should other components be included in the hash? This isn't secure\n        // if someone uses a bad codeHash. But they could mess up other components anyway,\n        // unless a UUID was generated in the contract, which is expensive.\n        uint txnId = getPaymentId(recipient, codeHash);\n        // If txnId already exists, don't overwrite.\n        require(\n            openPayments[txnId].sender == address(0),\n            \"Payment ID must be unique. Use a different passphrase hash.\"\n        );\n\n        // Create payments.\n        Payment memory txn = Payment(\n            holdTime,\n            now,\n            0,\n            token,\n            amount,\n            msg.sender,\n            recipient,\n            codeHash,\n            PaymentState.OPEN\n        );\n\n        openPayments[txnId] = txn;\n\n        // Take fees; mark ether or token balances.\n        if (token == address(0)) {\n            // Mark sender's ether balance with the sent amount\n            tokens[address(0)][msg.sender] = SafeMath.add(\n                tokens[address(0)][msg.sender],\n                amount\n            );\n\n            // Take baseFee and paymentFee (and any ether sent in the message)\n            tokens[address(0)][owner] = SafeMath.add(\n                tokens[address(0)][owner],\n                SafeMath.sub(msg.value, amount)\n            );\n\n        } else {\n            // Take baseFee (and any ether sent in the message)\n            tokens[address(0)][owner] = SafeMath.add(\n                tokens[address(0)][owner],\n                msg.value\n            );\n            // Transfer tokens; mark sender's balance; take paymentFee\n            transferToken(token, msg.sender, amount, paymentFeeTotal);\n        }\n\n        // TODO: is this the best step to emit events?\n        emit PaymentOpened(\n            txnId,\n            txn.holdTime,\n            txn.paymentOpenTime,\n            txn.paymentCloseTime,\n            txn.token,\n            txn.sendAmount,\n            txn.sender,\n            txn.recipient,\n            txn.codeHash\n        );\n\n    }\n\n    // Meant to be called by anyone, on behalf of the recipient\n    // or sender of a payment, in order to retrieve funds or\n    // cancel the payment, respectively.\n    // Will only work if the correct signature is passed in.\n    function completePaymentAsProxy(\n        uint256 txnId,\n        address sender,\n        address recipient,\n        string memory passphrase,\n        uint requestType,\n        bytes32 sigR,\n        bytes32 sigS,\n        uint8 sigV\n    ) public {\n        CompletePaymentRequest memory request = CompletePaymentRequest(\n            txnId,\n            sender,\n            recipient,\n            passphrase,\n            requestType\n        );\n        address signer = ecrecover(\n            hashCompletePaymentRequest(request),\n            sigV,\n            sigR,\n            sigS\n        );\n\n        require(\n            requestType == uint(\n                CompletePaymentRequestType.CANCEL\n            ) || requestType == uint(CompletePaymentRequestType.RETRIEVE),\n            \"requestType must be 0 (CANCEL) or 1 (RETRIEVE)\"\n        );\n\n        if (requestType == uint(CompletePaymentRequestType.RETRIEVE)) {\n            require(\n                recipient == signer,\n                \"The message recipient must be the same as the signer of the message\"\n            );\n            Payment memory txn = openPayments[txnId];\n            require(\n                txn.recipient == recipient,\n                \"The payment's recipient must be the same as signer of the message\"\n            );\n            retrieveFunds(txn, txnId, passphrase);\n        } else {\n            require(\n                sender == signer,\n                \"The message sender must be the same as the signer of the message\"\n            );\n            Payment memory txn = openPayments[txnId];\n            require(\n                txn.sender == sender,\n                \"The payment's sender must be the same as signer of the message\"\n            );\n            cancelPayment(txnId);\n        }\n    }\n\n    // Meant to be called by the recipient.\n    function retrieveFundsAsRecipient(uint txnId, string memory code) public {\n        Payment memory txn = openPayments[txnId];\n\n        // Check recipient\n        require(\n            txn.recipient == msg.sender,\n            \"Message sender must match payment recipient\"\n        );\n        retrieveFunds(txn, txnId, code);\n    }\n\n    // Sends funds to a payment recipient.\n    // Internal ONLY, because it does not do any checks with msg.sender,\n    // and leaves that for calling functions.\n    // TODO: find a more secure way to implement the recipient check.\n    function retrieveFunds(Payment memory txn, uint txnId, string memory code)\n        private\n    {\n        require(\n            retrieveFundsEnabled,\n            \"The retrieve funds functionality is currently disabled.\"\n        );\n        require(\n            txn.state == PaymentState.OPEN,\n            \"Payment must be open to retrieve funds\"\n        );\n        // TODO: make sure this is secure.\n        bytes memory actualHash = abi.encodePacked(\n            keccak256(abi.encodePacked(code, txn.recipient))\n        );\n        // Check codeHash\n        require(\n            sliceUint(actualHash) == sliceUint(txn.codeHash),\n            \"Passphrase is not correct\"\n        );\n\n        // Check holdTime\n        require(\n            (txn.paymentOpenTime + txn.holdTime) > now,\n            \"Hold time has already expired\"\n        );\n\n        // Update state.\n        txn.paymentCloseTime = now;\n        txn.state = PaymentState.COMPLETED;\n\n        delete openPayments[txnId];\n\n        // Transfer either ether or tokens.\n        if (txn.token == address(0)) {\n            // Pay out retrieved funds based on payment amount\n            // TODO: recipient must be valid!\n            txn.recipient.transfer(txn.sendAmount);\n            tokens[address(0)][txn.sender] = SafeMath.sub(\n                tokens[address(0)][txn.sender],\n                txn.sendAmount\n            );\n\n        } else {\n            withdrawToken(txn.token, txn.sender, txn.recipient, txn.sendAmount);\n        }\n\n        emit PaymentClosed(\n            txnId,\n            txn.holdTime,\n            txn.paymentOpenTime,\n            txn.paymentCloseTime,\n            txn.token,\n            txn.sendAmount,\n            txn.sender,\n            txn.recipient,\n            txn.codeHash,\n            uint(txn.state)\n        );\n\n    }\n\n    // Utility function to go from bytes -> uint\n    // This is apparently not reversible.\n    function sliceUint(bytes memory bs) public pure returns (uint) {\n        uint start = 0;\n        if (bs.length < start + 32) {\n            return 0;\n        }\n        uint x;\n        assembly {\n            x := mload(add(bs, add(0x20, start)))\n        }\n        return x;\n    }\n\n}\n",
  "sourcePath": "/Users/dwarrier/WebstormProjects/eth-refund/contracts/Etherclear.sol",
  "compiler": {
    "name": "solc",
    "version": "0.5.9+commit.e560f70d.Emscripten.clang"
  },
  "schemaVersion": "3.0.10",
  "updatedAt": "2019-06-23T16:11:43.727Z",
  "devdoc": {
    "methods": {}
  },
  "userdoc": {
    "methods": {}
  }
}