{
  "contractName": "Registry",
  "abi": [
    {
      "inputs": [],
      "payable": false,
      "stateMutability": "nonpayable",
      "type": "constructor"
    },
    {
      "constant": false,
      "inputs": [
        {
          "name": "versionName",
          "type": "string"
        },
        {
          "name": "contractAddress",
          "type": "address"
        }
      ],
      "name": "addVersion",
      "outputs": [],
      "payable": false,
      "stateMutability": "nonpayable",
      "type": "function"
    },
    {
      "constant": true,
      "inputs": [],
      "name": "getNumberOfVersions",
      "outputs": [
        {
          "name": "size",
          "type": "uint256"
        }
      ],
      "payable": false,
      "stateMutability": "view",
      "type": "function"
    },
    {
      "constant": true,
      "inputs": [
        {
          "name": "i",
          "type": "uint256"
        }
      ],
      "name": "getVersion",
      "outputs": [
        {
          "name": "versionName",
          "type": "string"
        },
        {
          "name": "contractAddress",
          "type": "address"
        }
      ],
      "payable": false,
      "stateMutability": "view",
      "type": "function"
    }
  ],
  "bytecode": "0x608060405234801561001057600080fd5b50600080546001600160a01b031916331790556104fe806100326000396000f3fe608060405234801561001057600080fd5b50600436106100415760003560e01c80632200919f14610046578063a8320a18146100c1578063b88da759146100db575b600080fd5b6100bf6004803603604081101561005c57600080fd5b81019060208101813564010000000081111561007757600080fd5b82018360208201111561008957600080fd5b803590602001918460018302840111640100000000831117156100ab57600080fd5b9193509150356001600160a01b0316610189565b005b6100c96102a7565b60408051918252519081900360200190f35b6100f8600480360360208110156100f157600080fd5b50356102ae565b6040518080602001836001600160a01b03166001600160a01b03168152602001828103825284818151815260200191508051906020019080838360005b8381101561014d578181015183820152602001610135565b50505050905090810190601f16801561017a5780820380516001836020036101000a031916815260200191505b50935050505060405180910390f35b6000546001600160a01b031633146101d25760405162461bcd60e51b81526004018080602001828103825260388152602001806104926038913960400191505060405180910390fd5b6101da6103e1565b6040805160606020601f8701819004028201810183529181018581529091829190879087908190850183828082843760009201829052509385525050506001600160a01b0385166020928301526001805480820180835591909252835180519495509093859360029093027fb10e2d527612073b26eecdfd717e6a320cf44b4afac2b0732d9fcbe2b7fa0cf601926102769284929101906103f9565b5060209190910151600190910180546001600160a01b0319166001600160a01b039092169190911790555050505050565b6001545b90565b606060006001548310610301576040805162461bcd60e51b8152602060048201526016602482015275496e646578206973206f7574206f6620626f756e647360501b604482015290519081900360640190fd5b6103096103e1565b6001848154811061031657fe5b60009182526020918290206040805160029384029092018054600181161561010002600019011693909304601f810185900490940282016060908101825290820184815291938492918491908401828280156103b35780601f10610388576101008083540402835291602001916103b3565b820191906000526020600020905b81548152906001019060200180831161039657829003601f168201915b5050509183525050600191909101546001600160a01b03166020918201528151910151909350915050915091565b60408051808201909152606081526000602082015290565b828054600181600116156101000203166002900490600052602060002090601f016020900481019282601f1061043a57805160ff1916838001178555610467565b82800160010185558215610467579182015b8281111561046757825182559160200191906001019061044c565b50610473929150610477565b5090565b6102ab91905b80821115610473576000815560010161047d56fe4f6e6c792074686520636f6e7472616374206f776e657220697320616c6c6f77656420746f2075736520746869732066756e6374696f6e2ea265627a7a72305820ebe45c7725a71dc68291b46b953075738c1b66c2ee4e45ff691e3984f695768e64736f6c63430005090032",
  "source": "pragma solidity ^0.5.9;\n\ncontract Registry {\n    struct ContractVersion {\n        string name;\n        address contractAddress;\n    }\n\n    modifier onlyOwner {\n        require(\n            msg.sender == owner,\n            \"Only the contract owner is allowed to use this function.\"\n        );\n        _;\n    }\n\n    address owner;\n\n    ContractVersion[] versions;\n\n    constructor() public {\n        owner = msg.sender;\n    }\n\n    function addVersion(string calldata versionName, address contractAddress)\n        external\n        onlyOwner\n    {\n        ContractVersion memory newVersion = ContractVersion(\n            versionName,\n            contractAddress\n        );\n        versions.push(newVersion);\n    }\n\n    function getNumberOfVersions() public view returns (uint size) {\n        return versions.length;\n    }\n\n    function getVersion(uint i)\n        public\n        view\n        returns (string memory versionName, address contractAddress)\n    {\n        require(i >= 0 && i < versions.length, \"Index is out of bounds\");\n        ContractVersion memory version = versions[i];\n        return (version.name, version.contractAddress);\n    }\n\n}\n",
  "sourcePath": "/Users/dwarrier/WebstormProjects/eth-refund/contracts/Registry.sol",
  "compiler": {
    "name": "solc",
    "version": "0.5.9+commit.e560f70d.Emscripten.clang"
  },
  "schemaVersion": "3.0.10",
  "updatedAt": "2019-06-23T16:10:02.824Z",
  "devdoc": {
    "methods": {}
  },
  "userdoc": {
    "methods": {}
  }
}